{
    "_format": "hh-sol-artifact-1",
    "contractName": "TodoList",
    "sourceName": "contracts/TodoList.sol",
    "abi": [
        {
            "inputs": [],
            "stateMutability": "nonpayable",
            "type": "constructor"
        },
        {
            "anonymous": false,
            "inputs": [
                {
                    "indexed": false,
                    "internalType": "uint256",
                    "name": "id",
                    "type": "uint256"
                },
                {
                    "indexed": false,
                    "internalType": "bool",
                    "name": "completed",
                    "type": "bool"
                }
            ],
            "name": "TaskCompleted",
            "type": "event"
        },
        {
            "anonymous": false,
            "inputs": [
                {
                    "indexed": false,
                    "internalType": "uint256",
                    "name": "id",
                    "type": "uint256"
                },
                {
                    "indexed": false,
                    "internalType": "string",
                    "name": "content",
                    "type": "string"
                },
                {
                    "indexed": false,
                    "internalType": "bool",
                    "name": "completed",
                    "type": "bool"
                }
            ],
            "name": "TaskCreated",
            "type": "event"
        },
        {
            "inputs": [
                {
                    "internalType": "uint256",
                    "name": "_id",
                    "type": "uint256"
                }
            ],
            "name": "completeTask",
            "outputs": [],
            "stateMutability": "nonpayable",
            "type": "function"
        },
        {
            "inputs": [
                {
                    "internalType": "string",
                    "name": "_content",
                    "type": "string"
                }
            ],
            "name": "createTask",
            "outputs": [],
            "stateMutability": "nonpayable",
            "type": "function"
        },
        {
            "inputs": [],
            "name": "getAllTasks",
            "outputs": [
                {
                    "components": [
                        {
                            "internalType": "uint256",
                            "name": "id",
                            "type": "uint256"
                        },
                        {
                            "internalType": "string",
                            "name": "content",
                            "type": "string"
                        },
                        {
                            "internalType": "bool",
                            "name": "completed",
                            "type": "bool"
                        }
                    ],
                    "internalType": "struct TodoList.Task[]",
                    "name": "",
                    "type": "tuple[]"
                }
            ],
            "stateMutability": "view",
            "type": "function"
        },
        {
            "inputs": [],
            "name": "getTaskCount",
            "outputs": [
                {
                    "internalType": "uint256",
                    "name": "",
                    "type": "uint256"
                }
            ],
            "stateMutability": "view",
            "type": "function"
        },
        {
            "inputs": [],
            "name": "taskCount",
            "outputs": [
                {
                    "internalType": "uint256",
                    "name": "",
                    "type": "uint256"
                }
            ],
            "stateMutability": "view",
            "type": "function"
        },
        {
            "inputs": [
                {
                    "internalType": "uint256",
                    "name": "",
                    "type": "uint256"
                }
            ],
            "name": "taskIds",
            "outputs": [
                {
                    "internalType": "uint256",
                    "name": "",
                    "type": "uint256"
                }
            ],
            "stateMutability": "view",
            "type": "function"
        },
        {
            "inputs": [
                {
                    "internalType": "uint256",
                    "name": "",
                    "type": "uint256"
                }
            ],
            "name": "tasks",
            "outputs": [
                {
                    "internalType": "uint256",
                    "name": "id",
                    "type": "uint256"
                },
                {
                    "internalType": "string",
                    "name": "content",
                    "type": "string"
                },
                {
                    "internalType": "bool",
                    "name": "completed",
                    "type": "bool"
                }
            ],
            "stateMutability": "view",
            "type": "function"
        }
    ],
    "bytecode": "0x608060405234801561001057600080fd5b5060006001556107cb806100256000396000f3fe608060405234801561001057600080fd5b506004361061007d5760003560e01c80638d9776721161005b5780638d977672146100d2578063b6cb58a5146100f4578063c17a340e146100fd578063e1e295581461010557600080fd5b8063111002aa1461008257806339118d2514610097578063779900b4146100bd575b600080fd5b61009561009036600461055c565b610118565b005b6100aa6100a536600461060d565b6101d0565b6040519081526020015b60405180910390f35b6100c56101f1565b6040516100b49190610673565b6100e56100e036600461060d565b610398565b6040516100b4939291906106f6565b6100aa60015481565b6001546100aa565b61009561011336600461060d565b610446565b6001805490600061012883610721565b90915550506040805160608101825260018054808352602080840186815260008587018190529283528282529490912083518155935180519394936101749385019291909101906104ad565b50604091820151600291909101805460ff191691151591909117905560015490517f05d0fb833127fc08168556d0e7ca9554fc3f6bc843b3b7d2bf1c35aea6bab660916101c59184906000906106f6565b60405180910390a150565b600281815481106101e057600080fd5b600091825260209091200154905081565b60025460609060009067ffffffffffffffff81111561021257610212610546565b60405190808252806020026020018201604052801561026957816020015b610256604051806060016040528060008152602001606081526020016000151581525090565b8152602001906001900390816102305790505b50905060005b600254811015610392576000806002838154811061028f5761028f61074a565b90600052602060002001548152602001908152602001600020604051806060016040529081600082015481526020016001820180546102cd90610760565b80601f01602080910402602001604051908101604052809291908181526020018280546102f990610760565b80156103465780601f1061031b57610100808354040283529160200191610346565b820191906000526020600020905b81548152906001019060200180831161032957829003601f168201915b50505091835250506002919091015460ff16151560209091015282518390839081106103745761037461074a565b6020026020010181905250808061038a90610721565b91505061026f565b50919050565b600060208190529081526040902080546001820180549192916103ba90610760565b80601f01602080910402602001604051908101604052809291908181526020018280546103e690610760565b80156104335780601f1061040857610100808354040283529160200191610433565b820191906000526020600020905b81548152906001019060200180831161041657829003601f168201915b5050506002909301549192505060ff1683565b6000818152602081815260409182902060028101805460ff8082161560ff19909216821790925584518681529116151592810192909252917fe21fa966ca5cd02748c0752352d18c48165e61cb55b4c29cccf924b5a95fcff1910160405180910390a15050565b8280546104b990610760565b90600052602060002090601f0160209004810192826104db5760008555610521565b82601f106104f457805160ff1916838001178555610521565b82800160010185558215610521579182015b82811115610521578251825591602001919060010190610506565b5061052d929150610531565b5090565b5b8082111561052d5760008155600101610532565b634e487b7160e01b600052604160045260246000fd5b60006020828403121561056e57600080fd5b813567ffffffffffffffff8082111561058657600080fd5b818401915084601f83011261059a57600080fd5b8135818111156105ac576105ac610546565b604051601f8201601f19908116603f011681019083821181831017156105d4576105d4610546565b816040528281528760208487010111156105ed57600080fd5b826020860160208301376000928101602001929092525095945050505050565b60006020828403121561061f57600080fd5b5035919050565b6000815180845260005b8181101561064c57602081850181015186830182015201610630565b8181111561065e576000602083870101525b50601f01601f19169290920160200192915050565b60006020808301818452808551808352604092508286019150828160051b87010184880160005b838110156106e857603f19898403018552815160608151855288820151818a8701526106c882870182610626565b92890151151595890195909552509487019492509086019060010161069a565b509098975050505050505050565b83815260606020820152600061070f6060830185610626565b90508215156040830152949350505050565b600060001982141561074357634e487b7160e01b600052601160045260246000fd5b5060010190565b634e487b7160e01b600052603260045260246000fd5b600181811c9082168061077457607f821691505b6020821081141561039257634e487b7160e01b600052602260045260246000fdfea2646970667358221220a5457c8ebb077eb4b3126661b57c0b5c6fd1c3c0fa1b1f0941c7ba0e7c2b1ca164736f6c63430008090033",
    "linkReferences": {},
    "deployedLinkReferences": {}
}